:1000000000308A000428000003081F39830083168B
:100010000317871508300313990002309A00A630A1
:100020009800903083129800831603170908C0398E
:10003000890003131F129F120030031788008312D8
:10004000870188018901831303138C1E25281A0850
:10005000A1002108303C031D32288316851083122D
:1000600085104D282108313C031D3B28831685103F
:10007000831285144D2821083F3C031D4D2883160B
:1000800005158312051D492830300C1E452899009E
:0E0090004D2831300C1E4A28990025286300A7
:04400E00E22FFF3F5F
:00000001FF
;PIC16F887
;CRC=103C  CREATED="24-feb.-22 15:49"
