:1000000000308A000428000003081F398300813073
:1000100083169900A63098009030831298008316BA
:100020001F149F141F159F1107309C008313831208
:100030008C1E18281A08A1002108303C031D252811
:10004000831685108312851040282108313C031D3A
:100050002E288316851083128514402821083F3CE2
:10006000031D4028831605158312051D3C283030DA
:100070000C1E38289900402831300C1E3D2899006C
:0400800018286300D9
:02400E00723FFF
:00000001FF
;PIC16F877A
;CRC=BDEF  CREATED="30-ago.-23 11:59"
